:06000000020069020ADCA7
:01000B0032C2
:0100130032BA
:01001B0032B2
:0100230032AA
:01002B0032A2
:01003300329A
:01003B003292
:01004300328A
:01004B003282
:01005300327A
:01005B003272
:030063000201286F
:0300D000020066C5
:0300660002010391
:2000D3000509E4B5090C050AB50A07050BB50B02050C7808E654FEF6100001227808E6440E
:2000F30001F62275D6B175D7E0438E1043AF04227808E64404F61203031203AC1200F6121C
:180113000A4CD2AF1200D3120A5A120216120B1812031080EFD20032AB
:0600C200750D0C750E0027
:20012B00750D0C750E007808E630E3357808E654F7F6E516700C7815E64401F6750F3275FE
:20014B0010007808E64410F67815E64402F6751C7D751D009000191204698582118583122B
:20016B00227808E630E53D7815E620E24F7815E64404F6751C64751D0090002812046985E2
:20018B0082138583147808E64410F67815E64402F6751C7D751D0090001912046985821164
:2001AB00858312227808E630E4127815E620E10C7815E654F7F67808E654EFF6227403B54B
:2001CB00160280067815E630E3097808E6441054D7F6227808E6442054E7F67815E654FB2D
:2001EB00F622750D08750E007815E654FCF6E52F30E7030201C87808E6440854CFF67402DC
:20020B00B51601227815E64408F6227808E630E05D7815E630E015150F74FFB50F02151021
:20022B00E50F451070067815E654F6F67815E630E11B151174FFB511021512E5114512705D
:20024B000C7815E654FDF67808E654EFF67815E630E21B151374FFB513021514E5134514AF
:20026B00700C7815E654FBF67808E654DFF67808E630E111C3E530950DE531950E500302A0
:06028B00012B0201ED222F
:2002910005177808E623235403FFBF01028005BF025F801B7405B51706D2B1A2B192B07456
:2002B100F62517504C751700C2B1A2B192B02274FB2517503C751700E51830E008C2B1A2BC
:2002D100B192B08022AE16E4CE25E0CE33FFAC187D00C3EE9CEF64808DF063F08095F04087
:2002F10006D2B1A2B192B00518740FB5180375180022C2B1A2B192B075B20375B1002278BE
:2003110008E620E001227808E630E205C2B1D2B0227808E654C060030202917808E6C40388
:17033100540124FF92B17808E6C4540124FF92B075170075180022DB
:2003480075C70075C50075C60075C38075C40022AE82AF8375C78075C5018EC48FC375C699
:200368005A75C6A500AFC2C007120348D0078F8222AE82AF8375C78075C5028EC48FC38519
:2003880019C275C65A75C6A500020348AE82AF8375C78075C5038EC48FC375C65A75C6A544
:2003A8000002034890000012035885821674FC25165003751600900001120358E582FFF5EC
:2003C8003224FE500375320022900000120394851619900000120379853219900001020334
:0103E800799B
:0500C800E4F51AF51B30
:2003E90085824D85834E85F04F120D1AFBA3120D1AFCFA8B018B00ECC313C813C8C313C866
:2004090013C8FFE86201EF62028B06ECC423CEC423541F6ECE541FCE6ECEFFEE6201EF6275
:20042900028B06ECC403CEC40354076ECE5407CE6ECEFFEE6201EF6202530101ECC313CB57
:2004490013CBFCE9035480FAE44203EA4204854D82854E83854FF0EB120C44A3EC020C440A
:2004690085821E85831FE51E451F7005751E01F51FC3E51E951CE51F951D4007851E828585
:200489001F8322E51A451B7043AC09AD0AAA0BAB0CEA6CF51AEB6DF51BE51A451B7005758F
:2004A9001A01F51B90001A75F0401203E97A007B00AC0BAD0CA81AA91BE4FEFFE84AF509BF
:2004C900E94BF50AEE4CF50BEF4DF50C90001A75F0401203E9E51CC3951EFEE51D951FFFF2
:2004E90074012EF54DE43FF54E851A82851B83120CCDAE82AF83EE251EF582EF351FF583B4
:0105090022CF
:0300CD0075230098
:20050A0085824D85834E85F04F7404254DFAE4354EFBAC4F74022AF550E43BF5518C528575
:20052A004D82854E83854FF0120D1AF9A3120D1AFDA3120D1AA3120D1A85508285518385D0
:20054A0052F0E9120C44A3ED120C44854D82854E83854FF0120D1AF9A3120D1AFDA3120DD7
:20056A001AFEA3120D1AFFE92406F9ED34FFFDEE34FFEF34FF8A828B838CF0E9120C44A38E
:20058A00ED120C4474042AFAE43BFB854D82854E83854FF0120D1AF9A3120D1AFDA3120D11
:2005AA001AFEA3120D1AFF74FA29F9E43DFDE43EE43F8A828B838CF0E9120C44A3ED020CCC
:2005CA004485823385833485F035120D1AF9A3120D1AFAA3120D1AFBA3120D1AFCC3E994B6
:2005EA0058EA9402EB9400EC9400400C74C49974099AE49BE49C5032740A2533F8E435344A
:20060A00FEAF3588828E838FF0E4120C44A3120C44740C2533FDE43534FEAF358D828E83E5
:20062A008FF0E4120C44A3020C44C3E99420EA9403EB9400EC9400501D85338285348385AE
:20064A0035F07420120C44A37403120C44A3E4120C44A3120C448533828534838535F012D9
:20066A000D1AFCA3120D1AFDA3120D1AFEA3120D1AFFC374FC9C74089DE49EE49F501D85E0
:20068A0033828534838535F074FC120C44A37408120C44A3E4120C44A3120C4485338285B5
:2006AA0034838535F0120D1AFCA3120D1AFDA3120D1AFEA3120D1AFF74042533F539E435F5
:2006CA0034F53A85353B74022539F536E4353AF537853B388536828537838538F0120D1AE0
:2006EA00F8A3120D1AF9E4FAFBECB5002EEDB5012AEEB50226EFB50322740A2533F53CE42F
:20070A003534F53D85353E853C82853D83853EF0E4120C44A3120C440209F4C3EC98ED99EA
:20072A00EE9AEF9B4003020895853982853A83853BF0120D1AFAA3120D1AFB8A008B017AEF
:20074A00007B00C3EC98ED99EE9AEF9B50168C028D03853982853A83853BF0EA120C44A390
:20076A00EB120C44740A2533F53CE43534F53D85353E8536828537838538F0120D1AF53F0E
:20078A00A3120D1AF5408533828534838535F0120D1AF541A3120D1AF542A3120D1AF54388
:2007AA00A3120D1AF544A83FA940E4FAFBE8C39541F54DE99542F54EEA9543F54FEB9544E1
:2007CA00F550900065E4F5F0120C5F85824185834285F043F544853982853A83853BF012C8
:2007EA000D1AFAA3120D1AFBE53FC39AFAE5409BFB8A4D8B4E754F00755000854182854279
:20080A00838543F0E544120BDFA882A983AAF0FB853C82853D83853EF0E8120C44A3E91260
:20082A000C44C3746498748089F063F08095F05013853C82853D83853EF07464120C44A3EB
:20084A00E4120C44740E2533F9E43534FAAB3589828A838BF0120D1A60030209F4853C82DD
:20086A00853D83853EF0120D1AFAA3120D1AFBC3E49AFAE49BFB853C82853D83853EF0EA92
:20088A00120C44A3EB120C440209F474042539F541E4353AF542853B43854182854283854D
:2008AA0043F0120D1AF8A3120D1AF97A007B00C3E89CE99DEA9EEB9F50128541828542832D
:2008CA008543F0EC120C44A3ED120C44740A2533FDE43534FEAF358533828534838535F0F4
:2008EA00120D1AF545A3120D1AF546A3120D1AF547A3120D1AF5488536828537838538F00A
:20090A00120D1AF53FA3120D1AF540A93FAA40E4FBFCE545C399F54DE5469AF54EE5479B0B
:20092A00F54FE5489CF550900065E4F5F0C007C006C005120C5F85824585834685F047F583
:20094A00488541828542838543F0120D1AF8A3120D1AFCE8C3953FF8EC9540FC884D8C4E0F
:20096A00754F007550008545828546838547F0E548120BDFA982AA83ABF0FCD005D006D0FB
:20098A00078D828E838FF0E9120C44A3EA120C44C374649974808AF063F08095F050108D86
:2009AA00828E838FF07464120C44A3E4120C44740E2533FAE43534FBAC358A828B838CF065
:2009CA00120D1A60258D828E838FF0120D1AFBA3120D1AFCC3E49BFBE49CFC8D828E838F3C
:2009EA00F0EB120C44A3EC120C44740A2533FDE43534FEAF358D828E838FF0120D1AFEA344
:200A0A00120D1AFF30E721740C2533FBE43534FCAD35C3E49EF9E49FFA8B828C838DF0E921
:200A2A00120C44A3EA020C44740C2533FBE43534FCAD358B828C838DF0EE120C44A3EF02F0
:200A4A000C44758909758C00758A00D2B2D28822C2027808E630E006E549600215493001D6
:200A6A0014AC21AD227E007F008C248D258E268F27D202C201E4B52302800E7401B52302C1
:200A8A0080157402B523478032D28CD2A8754964752301754A3222300206E54A6002154AA2
:200AAA00E549702DE54A702990002475F04012050A7523027808E654FBF6223002139000E3
:200ACA002475F0401205CB7808E64402F62275230022C0E0C007C006C005C004C0D075D058
:200AEA0000200115208D12D201AF8C7E00AC8A7D00EC4EF521ED4FF522758A00758C00C253
:0E0B0A008DD0D0D004D005D006D007D0E03278
:200B18007808E620E00122E54B24F95003020BDBE54B75F003A4900B3273020B47020B527D
:200B3800020B6C020B74020BAA020BB1020BBB30B50122754B01754C962230B504754B007B
:200B580022154CE54C600122754B027808E6543F4440F62220B50122754B032220B50B75BD
:200B78004B047808E6543F4480F6C374329530E495315052E52F30E70FE53260047F00802D
:200B9800027F018F321203D17808E6543FF6754B002230B531754B052220B52A754B06750C
:200BB8004C962230B50E05167404B51603751600754B0522D54C0F7808E6543FF6754B0074
:070BD8000203D1754B00225E
:200BDF00FB7A20E4FCFDFEFFE5822582F582E58333F583E5F033F5F0EB33FB4017DAE9804F
:200BFF0042E5822582F582E58333F583E5F033F5F0EB33FBEC33FCED33FDEE33FEEF33FF7E
:200C1F00EC954DED954EEE954FEF95504013EC954DFCED954EFDEE954FFEEF9550FF43821F
:050C3F0001DABEEB220A
:06009800E4787FF6D8FDBC
:200076007900E94400601B7A00900D3A780175A000E493F2A308B8000205A0D9F4DAF275E9
:02009600A0FFC9
:1B0C440020F71130F6138883A88220F509F6A8837583002280FEF280F5F022AF
:200C5F00AAF0FBE582854DF0A4FCADF0E583854DF0A42DFDE435F0FEE582854EF0A42DFD83
:200C7F00E5F03EFEE433FFEA854DF0A42EFEE5F03FFFE583854EF0A42EFEE5F03FFFE5822A
:200C9F00854FF0A42EFEE5F03FFFEB854DF0A42FFFEA854EF0A42FFFE583854FF0A42FFF92
:0E0CBF00E5828550F0A42F8EF08D838C82226A
:200CCD00E54D454E60467A01E54D25E0F54DE54E334012F54EE582954DE583954E40030ACC
:200CED0080E6C3E54E13F54EE54D13F54DC3E582954DF5F0E583954E4005F58385F082C3FB
:0D0D0D00E54E13F54EE54D13F54DDAE122EC
:20009E007800E84400600A790175A000E4F309D8FC7800E84400600C7900900001E4F0A360
:0400BE00D8FCD9FA97
:0D006900758152120D36E5826003020066BB
:1C0D1A0020F71430F6148883A88220F507E6A88375830022E280F7E49322E022E8
:040D360075820022A0
:00000001FF
